8=FIX.4.2|9=120|35=D|49=SENDER|56=TARGET|34=1|52=20230101-10:00:00.000|11=XYZ123|21=1|38=100|40=2|54=1|55=AAPL|60=20230101-10:00:00.000|10=010|
8=FIX.4.2|9=150|35=8|49=TARGET|56=SENDER|34=1|52=20230101-10:00:01.000|11=XYZ123|17=EXEC100|37=ORDER500|39=0|150=0|55=AAPL|6=150.00|14=0|10=011|
8=FIX.4.2|9=160|35=8|49=TARGET|56=SENDER|34=2|52=20230101-10:00:02.000|11=XYZ123|17=EXEC101|37=ORDER500|39=1|150=1|55=AAPL|6=150.00|14=50|31=150.00|32=50|10=012|
8=FIX.4.2|9=120|35=D|49=SENDER|56=TARGET|34=2|52=20230101-10:00:03.000|11=ABC789|21=1|38=200|40=1|54=2|55=GOOG|60=20230101-10:00:03.000|10=013|
8=FIX.4.2|9=160|35=8|49=TARGET|56=SENDER|34=3|52=20230101-10:00:04.000|11=XYZ123|17=EXEC103|37=ORDER500|39=2|150=2|55=AAPL|6=150.00|14=50|31=150.00|32=50|10=014|
8=FIX.4.2|9=150|35=8|49=TARGET|56=SENDER|34=4|52=20230101-10:00:05.000|11=DEF456|17=EXEC200|37=ORDER600|39=2|150=2|55=MSFT|6=100.00|14=100|10=015|
8=FIX.4.2|9=160|35=8|49=TARGET|56=SENDER|34=5|52=20230101-10:00:06.000|11=XYZ123|17=EXEC102|37=ORDER500|39=1|150=1|55=AAPL|6=150.00|14=30|31=150.00|32=30|10=016|